:08000000803102288731FD2F39
:100F8C0016302100970008008731D7278731CD2FE5
:100F9C0080310228383021009900980122009601F6
:100FAC0008008731E12787318731D0278731873196
:100FBC00C6278731080022008C018D018E013F303D
:100FCC0021008C00F0308D00FF308E00CF302300DC
:100FDC008E0030308D0017308C0024008D018C0178
:100FEC008E012100951722009D019E010800200012
:040FFC008731CA2F40
:020000040001F9
:08000000FF3FFF3FFF3FFF3F00
:04000E00E43FFF3E8E
:00000001FF
